{
  "contractName": "__unstable__TokenVault",
  "abi": [
    {
      "constant": false,
      "inputs": [
        {
          "internalType": "address",
          "name": "recipient",
          "type": "address"
        }
      ],
      "name": "transferPrimary",
      "outputs": [],
      "payable": false,
      "stateMutability": "nonpayable",
      "type": "function"
    },
    {
      "constant": true,
      "inputs": [],
      "name": "primary",
      "outputs": [
        {
          "internalType": "address",
          "name": "",
          "type": "address"
        }
      ],
      "payable": false,
      "stateMutability": "view",
      "type": "function"
    },
    {
      "anonymous": false,
      "inputs": [
        {
          "indexed": false,
          "internalType": "address",
          "name": "recipient",
          "type": "address"
        }
      ],
      "name": "PrimaryTransferred",
      "type": "event"
    },
    {
      "constant": false,
      "inputs": [
        {
          "internalType": "contract IERC20",
          "name": "token",
          "type": "address"
        },
        {
          "internalType": "address",
          "name": "to",
          "type": "address"
        },
        {
          "internalType": "uint256",
          "name": "amount",
          "type": "uint256"
        }
      ],
      "name": "transfer",
      "outputs": [],
      "payable": false,
      "stateMutability": "nonpayable",
      "type": "function"
    }
  ],
  "bytecode": "0x608060405260006100146100bf60201b60201c565b9050806000806101000a81548173ffffffffffffffffffffffffffffffffffffffff021916908373ffffffffffffffffffffffffffffffffffffffff1602179055507f4101e71e974f68df5e9730cc223280b41654676bbb052cdcc735c3337e64d2d981604051808273ffffffffffffffffffffffffffffffffffffffff1673ffffffffffffffffffffffffffffffffffffffff16815260200191505060405180910390a1506100c7565b600033905090565b61054a806100d66000396000f3fe608060405234801561001057600080fd5b50600436106100415760003560e01c80632348238c14610046578063beabacc81461008a578063c6dbdf61146100f8575b600080fd5b6100886004803603602081101561005c57600080fd5b81019080803573ffffffffffffffffffffffffffffffffffffffff169060200190929190505050610142565b005b6100f6600480360360608110156100a057600080fd5b81019080803573ffffffffffffffffffffffffffffffffffffffff169060200190929190803573ffffffffffffffffffffffffffffffffffffffff1690602001909291908035906020019092919050505061031a565b005b61010061048e565b604051808273ffffffffffffffffffffffffffffffffffffffff1673ffffffffffffffffffffffffffffffffffffffff16815260200191505060405180910390f35b6000809054906101000a900473ffffffffffffffffffffffffffffffffffffffff1673ffffffffffffffffffffffffffffffffffffffff166101826104b7565b73ffffffffffffffffffffffffffffffffffffffff16146101ee576040517f08c379a000000000000000000000000000000000000000000000000000000000815260040180806020018281038252602c8152602001806104ea602c913960400191505060405180910390fd5b600073ffffffffffffffffffffffffffffffffffffffff168173ffffffffffffffffffffffffffffffffffffffff161415610274576040517f08c379a000000000000000000000000000000000000000000000000000000000815260040180806020018281038252602a8152602001806104c0602a913960400191505060405180910390fd5b806000806101000a81548173ffffffffffffffffffffffffffffffffffffffff021916908373ffffffffffffffffffffffffffffffffffffffff1602179055507f4101e71e974f68df5e9730cc223280b41654676bbb052cdcc735c3337e64d2d981604051808273ffffffffffffffffffffffffffffffffffffffff1673ffffffffffffffffffffffffffffffffffffffff16815260200191505060405180910390a150565b6000809054906101000a900473ffffffffffffffffffffffffffffffffffffffff1673ffffffffffffffffffffffffffffffffffffffff1661035a6104b7565b73ffffffffffffffffffffffffffffffffffffffff16146103c6576040517f08c379a000000000000000000000000000000000000000000000000000000000815260040180806020018281038252602c8152602001806104ea602c913960400191505060405180910390fd5b8273ffffffffffffffffffffffffffffffffffffffff1663a9059cbb83836040518363ffffffff1660e01b8152600401808373ffffffffffffffffffffffffffffffffffffffff1673ffffffffffffffffffffffffffffffffffffffff16815260200182815260200192505050602060405180830381600087803b15801561044d57600080fd5b505af1158015610461573d6000803e3d6000fd5b505050506040513d602081101561047757600080fd5b810190808051906020019092919050505050505050565b60008060009054906101000a900473ffffffffffffffffffffffffffffffffffffffff16905090565b60003390509056fe5365636f6e646172793a206e6577207072696d61727920697320746865207a65726f20616464726573735365636f6e646172793a2063616c6c6572206973206e6f7420746865207072696d617279206163636f756e74a265627a7a7231582064df3a40deb4367cbc67b7d8347a9196fc5757bf11a86df4467aacea0ed0d04b64736f6c634300050b0032",
  "source": "pragma solidity ^0.5.11;\n\nimport \"@openzeppelin/contracts/crowdsale/Crowdsale.sol\";\nimport \"@openzeppelin/contracts/token/ERC20/IERC20.sol\";\nimport \"@openzeppelin/contracts/ownership/Secondary.sol\";\nimport \"@openzeppelin/contracts/ownership/Ownable.sol\";\nimport \".././Kassandra/KSAT.sol\";\n\ncontract KassandraSeed is Crowdsale, Ownable{\n    using SafeMath for uint256;\n    enum Tiers {NoTier, Tier1, Tier2, Tier3, Tier4 }\n    uint256 public relativeCap = 217390000000000000000;\n    bool public isSaleOpenForAll = true;\n    mapping(address => uint256) public contributions;\n    mapping(address => uint256) public vestedBalances;\n    mapping(address => uint256) public vestingPeriod;\n    KSAT public shineToken; \n    __unstable__TokenVault public vault;\n\n    constructor(\n        uint256 rate,\n        address payable wallet,\n        IERC20 token\n    ) public Crowdsale(rate, wallet, token) {\n        vault = new __unstable__TokenVault();\n    }\n    \n    function setRelativeCap(uint256 _relativeCap) public onlyOwner {\n        relativeCap = _relativeCap;\n    }\n    function setShineTokenAddress(address tokenAddress) public onlyOwner {\n        shineToken = KSAT(tokenAddress);\n    }\n\n    function allowAllTierAccess(bool _isSaleOpenForAll) public onlyOwner {\n        isSaleOpenForAll = _isSaleOpenForAll;\n    }\n\n\n    function getShineTokenBalance(address beneficiary) public view returns (uint256) {\n        require(address(shineToken) != address(0), \"Reference to the Shine Token contract has not been set\");\n        return shineToken.balanceOf(beneficiary);\n    }\n\n    function getTier(uint256 shineBalance) public pure returns (Tiers){\n        if (shineBalance < 15000000000000000000000){\n            return Tiers.NoTier;\n        }else if(shineBalance >= 15000000000000000000000 && shineBalance < 50000000000000000000000){\n            return Tiers.Tier1;\n        }else if(shineBalance >= 50000000000000000000000 && shineBalance < 200000000000000000000000){\n            return Tiers.Tier2;\n        }else if(shineBalance >= 200000000000000000000000 && shineBalance < 400000000000000000000000){\n            return Tiers.Tier3;\n        }else if (shineBalance >= 400000000000000000000000){\n            return Tiers.Tier4;\n        }\n    }\n\n    function getContribution(address beneficiary) public view returns (uint256) {\n        return contributions[beneficiary];\n    }\n\n    function _updatePurchasingState(address beneficiary, uint256 weiAmount) internal {\n        uint256 shineBalance = getShineTokenBalance(beneficiary);\n        \n        Tiers tier = getTier(shineBalance);\n        require(tier != Tiers.NoTier, \"Currently you are below Tier 1 level, but you need to be at least Tier3 in order to participate in the seed sale\");\n        require(tier != Tiers.Tier1 || isSaleOpenForAll, \"You are Tier 1, but you need to be Tier3 in order to participate in the seed sale\");\n        require(tier != Tiers.Tier2 || isSaleOpenForAll, \"You are Tier 2, but You need to be Tier3 in order to participate in the seed sale\");\n        \n        if(tier == Tiers.Tier1){ // do we need isSaleOpenForAll again to check?\n            require(contributions[beneficiary].add(weiAmount) <= relativeCap.mul(1), \"Relative cap exceeded for Tier 1, consider getting into the next tier\");\n        }else if(tier == Tiers.Tier2){ \n            require(contributions[beneficiary].add(weiAmount) <= relativeCap.mul(2), \"Relative cap exceeded for Tier 2, consider getting into the next tier\");\n        }else if(tier == Tiers.Tier3){\n            require(contributions[beneficiary].add(weiAmount) <= relativeCap.mul(4), \"Relative cap exceeded for Tier 3, consider getting into the next tier\");\n        }else if(tier == Tiers.Tier4){\n            require(contributions[beneficiary].add(weiAmount) <= relativeCap.mul(8), \"Relative cap exceeded for Tier 4\");\n        }\n\n        contributions[beneficiary] = contributions[beneficiary].add(weiAmount);\n    }\n\n    function _processPurchase(address beneficiary, uint256 tokenAmount) internal {\n        require((tokenAmount.div(100)).mul(100) == tokenAmount, 'The amount that is being bought is too small to split it partially for vesting');\n        //vestedBalances[beneficiary] = vestedBalances[beneficiary].add(tokenAmount.mul(75).div(100));\n\n        //vestingPeriod[beneficiary] = block.timestamp + 100 days;\n\n        // deliver 100% of the tokens\n        _deliverTokens(beneficiary, tokenAmount.mul(100).div(100));\n     \n    \n    }\n\n    function withdrawTokens(address beneficiary) public {\n        uint256 amount = vestedBalances[beneficiary];\n        require(amount > 0, \"PostDeliveryCrowdsale: beneficiary is not due any tokens\");\n        require(block.timestamp >= vestingPeriod[beneficiary], \"Vesting: the time required for vesting is not expired yet\");\n\n        vestedBalances[beneficiary] = 0;\n        vault.transfer(token(), beneficiary, amount);\n    }\n\n}\n\ncontract __unstable__TokenVault is Secondary {\n    function transfer(IERC20 token, address to, uint256 amount) public onlyPrimary {\n        token.transfer(to, amount);\n    }\n}\n\n",
  "sourcePath": "/Users/jdoe/Documents/Projects/ERC20/contracts/Projects/Kassandra/KassandraSeed.sol",
  "compiler": {
    "name": "solc",
    "version": "0.5.11+commit.c082d0b4.Emscripten.clang"
  },
  "schemaVersion": "3.4.4",
  "updatedAt": "2022-01-12T10:21:10.839Z",
  "devdoc": {
    "methods": {
      "primary()": {
        "return": "the address of the primary."
      },
      "transferPrimary(address)": {
        "details": "Transfers contract to a new primary.",
        "params": {
          "recipient": "The address of new primary."
        }
      }
    }
  },
  "userdoc": {
    "methods": {}
  }
}