{
  "contractName": "KassandraSeed",
  "abi": [
    {
      "constant": true,
      "inputs": [],
      "name": "rate",
      "outputs": [
        {
          "internalType": "uint256",
          "name": "",
          "type": "uint256"
        }
      ],
      "payable": false,
      "stateMutability": "view",
      "type": "function"
    },
    {
      "constant": true,
      "inputs": [],
      "name": "weiRaised",
      "outputs": [
        {
          "internalType": "uint256",
          "name": "",
          "type": "uint256"
        }
      ],
      "payable": false,
      "stateMutability": "view",
      "type": "function"
    },
    {
      "constant": true,
      "inputs": [
        {
          "internalType": "address",
          "name": "",
          "type": "address"
        }
      ],
      "name": "contributions",
      "outputs": [
        {
          "internalType": "uint256",
          "name": "",
          "type": "uint256"
        }
      ],
      "payable": false,
      "stateMutability": "view",
      "type": "function"
    },
    {
      "constant": true,
      "inputs": [],
      "name": "wallet",
      "outputs": [
        {
          "internalType": "address payable",
          "name": "",
          "type": "address"
        }
      ],
      "payable": false,
      "stateMutability": "view",
      "type": "function"
    },
    {
      "constant": true,
      "inputs": [],
      "name": "isSaleOpenForAll",
      "outputs": [
        {
          "internalType": "bool",
          "name": "",
          "type": "bool"
        }
      ],
      "payable": false,
      "stateMutability": "view",
      "type": "function"
    },
    {
      "constant": false,
      "inputs": [],
      "name": "renounceOwnership",
      "outputs": [],
      "payable": false,
      "stateMutability": "nonpayable",
      "type": "function"
    },
    {
      "constant": true,
      "inputs": [],
      "name": "owner",
      "outputs": [
        {
          "internalType": "address",
          "name": "",
          "type": "address"
        }
      ],
      "payable": false,
      "stateMutability": "view",
      "type": "function"
    },
    {
      "constant": true,
      "inputs": [],
      "name": "isOwner",
      "outputs": [
        {
          "internalType": "bool",
          "name": "",
          "type": "bool"
        }
      ],
      "payable": false,
      "stateMutability": "view",
      "type": "function"
    },
    {
      "constant": true,
      "inputs": [],
      "name": "relativeCap",
      "outputs": [
        {
          "internalType": "uint256",
          "name": "",
          "type": "uint256"
        }
      ],
      "payable": false,
      "stateMutability": "view",
      "type": "function"
    },
    {
      "constant": true,
      "inputs": [
        {
          "internalType": "address",
          "name": "",
          "type": "address"
        }
      ],
      "name": "vestingPeriod",
      "outputs": [
        {
          "internalType": "uint256",
          "name": "",
          "type": "uint256"
        }
      ],
      "payable": false,
      "stateMutability": "view",
      "type": "function"
    },
    {
      "constant": true,
      "inputs": [],
      "name": "shineToken",
      "outputs": [
        {
          "internalType": "contract KSAT",
          "name": "",
          "type": "address"
        }
      ],
      "payable": false,
      "stateMutability": "view",
      "type": "function"
    },
    {
      "constant": true,
      "inputs": [
        {
          "internalType": "address",
          "name": "",
          "type": "address"
        }
      ],
      "name": "vestedBalances",
      "outputs": [
        {
          "internalType": "uint256",
          "name": "",
          "type": "uint256"
        }
      ],
      "payable": false,
      "stateMutability": "view",
      "type": "function"
    },
    {
      "constant": false,
      "inputs": [
        {
          "internalType": "address",
          "name": "beneficiary",
          "type": "address"
        }
      ],
      "name": "buyTokens",
      "outputs": [],
      "payable": true,
      "stateMutability": "payable",
      "type": "function"
    },
    {
      "constant": false,
      "inputs": [
        {
          "internalType": "address",
          "name": "newOwner",
          "type": "address"
        }
      ],
      "name": "transferOwnership",
      "outputs": [],
      "payable": false,
      "stateMutability": "nonpayable",
      "type": "function"
    },
    {
      "constant": true,
      "inputs": [],
      "name": "vault",
      "outputs": [
        {
          "internalType": "contract __unstable__TokenVault",
          "name": "",
          "type": "address"
        }
      ],
      "payable": false,
      "stateMutability": "view",
      "type": "function"
    },
    {
      "constant": true,
      "inputs": [],
      "name": "token",
      "outputs": [
        {
          "internalType": "contract IERC20",
          "name": "",
          "type": "address"
        }
      ],
      "payable": false,
      "stateMutability": "view",
      "type": "function"
    },
    {
      "inputs": [
        {
          "internalType": "uint256",
          "name": "rate",
          "type": "uint256"
        },
        {
          "internalType": "address payable",
          "name": "wallet",
          "type": "address"
        },
        {
          "internalType": "contract IERC20",
          "name": "token",
          "type": "address"
        }
      ],
      "payable": false,
      "stateMutability": "nonpayable",
      "type": "constructor"
    },
    {
      "payable": true,
      "stateMutability": "payable",
      "type": "fallback"
    },
    {
      "anonymous": false,
      "inputs": [
        {
          "indexed": true,
          "internalType": "address",
          "name": "previousOwner",
          "type": "address"
        },
        {
          "indexed": true,
          "internalType": "address",
          "name": "newOwner",
          "type": "address"
        }
      ],
      "name": "OwnershipTransferred",
      "type": "event"
    },
    {
      "anonymous": false,
      "inputs": [
        {
          "indexed": true,
          "internalType": "address",
          "name": "purchaser",
          "type": "address"
        },
        {
          "indexed": true,
          "internalType": "address",
          "name": "beneficiary",
          "type": "address"
        },
        {
          "indexed": false,
          "internalType": "uint256",
          "name": "value",
          "type": "uint256"
        },
        {
          "indexed": false,
          "internalType": "uint256",
          "name": "amount",
          "type": "uint256"
        }
      ],
      "name": "TokensPurchased",
      "type": "event"
    },
    {
      "constant": false,
      "inputs": [
        {
          "internalType": "uint256",
          "name": "_relativeCap",
          "type": "uint256"
        }
      ],
      "name": "setRelativeCap",
      "outputs": [],
      "payable": false,
      "stateMutability": "nonpayable",
      "type": "function"
    },
    {
      "constant": false,
      "inputs": [
        {
          "internalType": "address",
          "name": "tokenAddress",
          "type": "address"
        }
      ],
      "name": "setShineTokenAddress",
      "outputs": [],
      "payable": false,
      "stateMutability": "nonpayable",
      "type": "function"
    },
    {
      "constant": false,
      "inputs": [
        {
          "internalType": "bool",
          "name": "_isSaleOpenForAll",
          "type": "bool"
        }
      ],
      "name": "allowAllTierAccess",
      "outputs": [],
      "payable": false,
      "stateMutability": "nonpayable",
      "type": "function"
    },
    {
      "constant": true,
      "inputs": [
        {
          "internalType": "address",
          "name": "beneficiary",
          "type": "address"
        }
      ],
      "name": "getShineTokenBalance",
      "outputs": [
        {
          "internalType": "uint256",
          "name": "",
          "type": "uint256"
        }
      ],
      "payable": false,
      "stateMutability": "view",
      "type": "function"
    },
    {
      "constant": true,
      "inputs": [
        {
          "internalType": "uint256",
          "name": "shineBalance",
          "type": "uint256"
        }
      ],
      "name": "getTier",
      "outputs": [
        {
          "internalType": "enum KassandraSeed.Tiers",
          "name": "",
          "type": "uint8"
        }
      ],
      "payable": false,
      "stateMutability": "pure",
      "type": "function"
    },
    {
      "constant": true,
      "inputs": [
        {
          "internalType": "address",
          "name": "beneficiary",
          "type": "address"
        }
      ],
      "name": "getContribution",
      "outputs": [
        {
          "internalType": "uint256",
          "name": "",
          "type": "uint256"
        }
      ],
      "payable": false,
      "stateMutability": "view",
      "type": "function"
    },
    {
      "constant": false,
      "inputs": [
        {
          "internalType": "address",
          "name": "beneficiary",
          "type": "address"
        }
      ],
      "name": "withdrawTokens",
      "outputs": [],
      "payable": false,
      "stateMutability": "nonpayable",
      "type": "function"
    }
  ],
  "bytecode": "0x6080604052680bc8e46d37ea2b00006005556001600660006101000a81548160ff0219169083151502179055503480156200003957600080fd5b506040516200312c3803806200312c833981810160405260608110156200005f57600080fd5b8101908080519060200190929190805190602001909291908051906020019092919050505082828260016000806101000a81548160ff0219169083151502179055506000831162000118576040517f08c379a00000000000000000000000000000000000000000000000000000000081526004018080602001828103825260148152602001807f43726f776473616c653a2072617465206973203000000000000000000000000081525060200191505060405180910390fd5b600073ffffffffffffffffffffffffffffffffffffffff168273ffffffffffffffffffffffffffffffffffffffff161415620001a0576040517f08c379a0000000000000000000000000000000000000000000000000000000008152600401808060200182810382526025815260200180620031076025913960400191505060405180910390fd5b600073ffffffffffffffffffffffffffffffffffffffff168173ffffffffffffffffffffffffffffffffffffffff16141562000228576040517f08c379a0000000000000000000000000000000000000000000000000000000008152600401808060200182810382526024815260200180620030e36024913960400191505060405180910390fd5b8260028190555081600160006101000a81548173ffffffffffffffffffffffffffffffffffffffff021916908373ffffffffffffffffffffffffffffffffffffffff16021790555080600060016101000a81548173ffffffffffffffffffffffffffffffffffffffff021916908373ffffffffffffffffffffffffffffffffffffffff1602179055505050506000620002c6620003da60201b60201c565b905080600460006101000a81548173ffffffffffffffffffffffffffffffffffffffff021916908373ffffffffffffffffffffffffffffffffffffffff1602179055508073ffffffffffffffffffffffffffffffffffffffff16600073ffffffffffffffffffffffffffffffffffffffff167f8be0079c531659141344cd1fd0a4f28419497f9722a3daafe3b4186f6b6457e060405160405180910390a3506040516200037390620003e2565b604051809103906000f08015801562000390573d6000803e3d6000fd5b50600b60006101000a81548173ffffffffffffffffffffffffffffffffffffffff021916908373ffffffffffffffffffffffffffffffffffffffff160217905550505050620003f0565b600033905090565b6106208062002ac383390190565b6126c380620004006000396000f3fe6080604052600436106101405760003560e01c806365e7a1a6116100b65780639de07ea71161006f5780639de07ea714610601578063cb3fdb6114610658578063ec8ac4d8146106bd578063f2fde38b14610701578063fbfa77cf14610752578063fc0c546a146107a957610140565b806365e7a1a6146104a5578063715018a6146104d45780638da5cb5b146104eb5780638f32d59b1461054257806393f01e9f14610571578063959cb78a1461059c57610140565b806342e94c901161010857806342e94c90146102af57806349df728c146103145780634c549802146103655780634f062c5a146103b65780635056cc3b14610413578063521eb2731461044e57610140565b806321eff7fc146101525780632c4e722e146101b75780632e0a2995146101e25780633d78ed70146102475780634042b66f14610284575b61015061014b610800565b610808565b005b34801561015e57600080fd5b506101a16004803603602081101561017557600080fd5b81019080803573ffffffffffffffffffffffffffffffffffffffff169060200190929190505050610993565b6040518082815260200191505060405180910390f35b3480156101c357600080fd5b506101cc6109dc565b6040518082815260200191505060405180910390f35b3480156101ee57600080fd5b506102316004803603602081101561020557600080fd5b81019080803573ffffffffffffffffffffffffffffffffffffffff1690602001909291905050506109e6565b6040518082815260200191505060405180910390f35b34801561025357600080fd5b506102826004803603602081101561026a57600080fd5b81019080803515159060200190929190505050610b70565b005b34801561029057600080fd5b50610299610c07565b6040518082815260200191505060405180910390f35b3480156102bb57600080fd5b506102fe600480360360208110156102d257600080fd5b81019080803573ffffffffffffffffffffffffffffffffffffffff169060200190929190505050610c11565b6040518082815260200191505060405180910390f35b34801561032057600080fd5b506103636004803603602081101561033757600080fd5b81019080803573ffffffffffffffffffffffffffffffffffffffff169060200190929190505050610c29565b005b34801561037157600080fd5b506103b46004803603602081101561038857600080fd5b81019080803573ffffffffffffffffffffffffffffffffffffffff169060200190929190505050610ea3565b005b3480156103c257600080fd5b506103ef600480360360208110156103d957600080fd5b8101908080359060200190929190505050610f61565b604051808260048111156103ff57fe5b60ff16815260200191505060405180910390f35b34801561041f57600080fd5b5061044c6004803603602081101561043657600080fd5b8101908080359060200190929190505050611031565b005b34801561045a57600080fd5b506104636110b5565b604051808273ffffffffffffffffffffffffffffffffffffffff1673ffffffffffffffffffffffffffffffffffffffff16815260200191505060405180910390f35b3480156104b157600080fd5b506104ba6110df565b604051808215151515815260200191505060405180910390f35b3480156104e057600080fd5b506104e96110f2565b005b3480156104f757600080fd5b5061050061122d565b604051808273ffffffffffffffffffffffffffffffffffffffff1673ffffffffffffffffffffffffffffffffffffffff16815260200191505060405180910390f35b34801561054e57600080fd5b50610557611257565b604051808215151515815260200191505060405180910390f35b34801561057d57600080fd5b506105866112b6565b6040518082815260200191505060405180910390f35b3480156105a857600080fd5b506105eb600480360360208110156105bf57600080fd5b81019080803573ffffffffffffffffffffffffffffffffffffffff1690602001909291905050506112bc565b6040518082815260200191505060405180910390f35b34801561060d57600080fd5b506106166112d4565b604051808273ffffffffffffffffffffffffffffffffffffffff1673ffffffffffffffffffffffffffffffffffffffff16815260200191505060405180910390f35b34801561066457600080fd5b506106a76004803603602081101561067b57600080fd5b81019080803573ffffffffffffffffffffffffffffffffffffffff1690602001909291905050506112fa565b6040518082815260200191505060405180910390f35b6106ff600480360360208110156106d357600080fd5b81019080803573ffffffffffffffffffffffffffffffffffffffff169060200190929190505050610808565b005b34801561070d57600080fd5b506107506004803603602081101561072457600080fd5b81019080803573ffffffffffffffffffffffffffffffffffffffff169060200190929190505050611312565b005b34801561075e57600080fd5b50610767611398565b604051808273ffffffffffffffffffffffffffffffffffffffff1673ffffffffffffffffffffffffffffffffffffffff16815260200191505060405180910390f35b3480156107b557600080fd5b506107be6113be565b604051808273ffffffffffffffffffffffffffffffffffffffff1673ffffffffffffffffffffffffffffffffffffffff16815260200191505060405180910390f35b600033905090565b6000809054906101000a900460ff16610889576040517f08c379a000000000000000000000000000000000000000000000000000000000815260040180806020018281038252601f8152602001807f5265656e7472616e637947756172643a207265656e7472616e742063616c6c0081525060200191505060405180910390fd5b60008060006101000a81548160ff02191690831515021790555060003490506108b282826113e7565b60006108bd826114e8565b90506108d48260035461150690919063ffffffff16565b6003819055506108e4838261158e565b8273ffffffffffffffffffffffffffffffffffffffff16610903610800565b73ffffffffffffffffffffffffffffffffffffffff167f6faf93231a456e552dbc9961f58d9713ee4f2e69d15f1975b050ef0911053a7b8484604051808381526020018281526020019250505060405180910390a36109628383611640565b61096a611c1a565b6109748383611c85565b505060016000806101000a81548160ff02191690831515021790555050565b6000600760008373ffffffffffffffffffffffffffffffffffffffff1673ffffffffffffffffffffffffffffffffffffffff168152602001908152602001600020549050919050565b6000600254905090565b60008073ffffffffffffffffffffffffffffffffffffffff16600a60009054906101000a900473ffffffffffffffffffffffffffffffffffffffff1673ffffffffffffffffffffffffffffffffffffffff161415610a8f576040517f08c379a00000000000000000000000000000000000000000000000000000000081526004018080602001828103825260368152602001806124f16036913960400191505060405180910390fd5b600a60009054906101000a900473ffffffffffffffffffffffffffffffffffffffff1673ffffffffffffffffffffffffffffffffffffffff166370a08231836040518263ffffffff1660e01b8152600401808273ffffffffffffffffffffffffffffffffffffffff1673ffffffffffffffffffffffffffffffffffffffff16815260200191505060206040518083038186803b158015610b2e57600080fd5b505afa158015610b42573d6000803e3d6000fd5b505050506040513d6020811015610b5857600080fd5b81019080805190602001909291905050509050919050565b610b78611257565b610bea576040517f08c379a00000000000000000000000000000000000000000000000000000000081526004018080602001828103825260208152602001807f4f776e61626c653a2063616c6c6572206973206e6f7420746865206f776e657281525060200191505060405180910390fd5b80600660006101000a81548160ff02191690831515021790555050565b6000600354905090565b60076020528060005260406000206000915090505481565b6000600860008373ffffffffffffffffffffffffffffffffffffffff1673ffffffffffffffffffffffffffffffffffffffff16815260200190815260200160002054905060008111610cc6576040517f08c379a00000000000000000000000000000000000000000000000000000000081526004018080602001828103825260388152602001806124986038913960400191505060405180910390fd5b600960008373ffffffffffffffffffffffffffffffffffffffff1673ffffffffffffffffffffffffffffffffffffffff16815260200190815260200160002054421015610d5e576040517f08c379a00000000000000000000000000000000000000000000000000000000081526004018080602001828103825260398152602001806125e76039913960400191505060405180910390fd5b6000600860008473ffffffffffffffffffffffffffffffffffffffff1673ffffffffffffffffffffffffffffffffffffffff16815260200190815260200160002081905550600b60009054906101000a900473ffffffffffffffffffffffffffffffffffffffff1673ffffffffffffffffffffffffffffffffffffffff1663beabacc8610de96113be565b84846040518463ffffffff1660e01b8152600401808473ffffffffffffffffffffffffffffffffffffffff1673ffffffffffffffffffffffffffffffffffffffff1681526020018373ffffffffffffffffffffffffffffffffffffffff1673ffffffffffffffffffffffffffffffffffffffff1681526020018281526020019350505050600060405180830381600087803b158015610e8757600080fd5b505af1158015610e9b573d6000803e3d6000fd5b505050505050565b610eab611257565b610f1d576040517f08c379a00000000000000000000000000000000000000000000000000000000081526004018080602001828103825260208152602001807f4f776e61626c653a2063616c6c6572206973206e6f7420746865206f776e657281525060200191505060405180910390fd5b80600a60006101000a81548173ffffffffffffffffffffffffffffffffffffffff021916908373ffffffffffffffffffffffffffffffffffffffff16021790555050565b600069032d26d12e980b600000821015610f7e576000905061102c565b69032d26d12e980b6000008210158015610fa15750690a968163f0a57b40000082105b15610faf576001905061102c565b690a968163f0a57b4000008210158015610fd25750692a5a058fc295ed00000082105b15610fe0576002905061102c565b692a5a058fc295ed000000821015801561100357506954b40b1f852bda00000082105b15611011576003905061102c565b6954b40b1f852bda000000821061102b576004905061102c565b5b919050565b611039611257565b6110ab576040517f08c379a00000000000000000000000000000000000000000000000000000000081526004018080602001828103825260208152602001807f4f776e61626c653a2063616c6c6572206973206e6f7420746865206f776e657281525060200191505060405180910390fd5b8060058190555050565b6000600160009054906101000a900473ffffffffffffffffffffffffffffffffffffffff16905090565b600660009054906101000a900460ff1681565b6110fa611257565b61116c576040517f08c379a00000000000000000000000000000000000000000000000000000000081526004018080602001828103825260208152602001807f4f776e61626c653a2063616c6c6572206973206e6f7420746865206f776e657281525060200191505060405180910390fd5b600073ffffffffffffffffffffffffffffffffffffffff16600460009054906101000a900473ffffffffffffffffffffffffffffffffffffffff1673ffffffffffffffffffffffffffffffffffffffff167f8be0079c531659141344cd1fd0a4f28419497f9722a3daafe3b4186f6b6457e060405160405180910390a36000600460006101000a81548173ffffffffffffffffffffffffffffffffffffffff021916908373ffffffffffffffffffffffffffffffffffffffff160217905550565b6000600460009054906101000a900473ffffffffffffffffffffffffffffffffffffffff16905090565b6000600460009054906101000a900473ffffffffffffffffffffffffffffffffffffffff1673ffffffffffffffffffffffffffffffffffffffff1661129a610800565b73ffffffffffffffffffffffffffffffffffffffff1614905090565b60055481565b60096020528060005260406000206000915090505481565b600a60009054906101000a900473ffffffffffffffffffffffffffffffffffffffff1681565b60086020528060005260406000206000915090505481565b61131a611257565b61138c576040517f08c379a00000000000000000000000000000000000000000000000000000000081526004018080602001828103825260208152602001807f4f776e61626c653a2063616c6c6572206973206e6f7420746865206f776e657281525060200191505060405180910390fd5b61139581611c89565b50565b600b60009054906101000a900473ffffffffffffffffffffffffffffffffffffffff1681565b60008060019054906101000a900473ffffffffffffffffffffffffffffffffffffffff16905090565b600073ffffffffffffffffffffffffffffffffffffffff168273ffffffffffffffffffffffffffffffffffffffff16141561146d576040517f08c379a000000000000000000000000000000000000000000000000000000000815260040180806020018281038252602a815260200180612527602a913960400191505060405180910390fd5b60008114156114e4576040517f08c379a00000000000000000000000000000000000000000000000000000000081526004018080602001828103825260198152602001807f43726f776473616c653a20776569416d6f756e7420697320300000000000000081525060200191505060405180910390fd5b5050565b60006114ff60025483611dcf90919063ffffffff16565b9050919050565b600080828401905083811015611584576040517f08c379a000000000000000000000000000000000000000000000000000000000815260040180806020018281038252601b8152602001807f536166654d6174683a206164646974696f6e206f766572666c6f77000000000081525060200191505060405180910390fd5b8091505092915050565b806115b660646115a8606485611e5590919063ffffffff16565b611dcf90919063ffffffff16565b1461160c576040517f08c379a000000000000000000000000000000000000000000000000000000000815260040180806020018281038252604e8152602001806123da604e913960600191505060405180910390fd5b61163c826116376064611629606486611dcf90919063ffffffff16565b611e5590919063ffffffff16565b611e9f565b5050565b600061164b836109e6565b9050600061165882610f61565b90506000600481111561166757fe5b81600481111561167357fe5b14156116ca576040517f08c379a00000000000000000000000000000000000000000000000000000000081526004018080602001828103825260708152602001806124286070913960800191505060405180910390fd5b600160048111156116d757fe5b8160048111156116e357fe5b1415806116fc5750600660009054906101000a900460ff165b611751576040517f08c379a000000000000000000000000000000000000000000000000000000000815260040180806020018281038252605181526020018061231e6051913960600191505060405180910390fd5b6002600481111561175e57fe5b81600481111561176a57fe5b1415806117835750600660009054906101000a900460ff165b6117d8576040517f08c379a00000000000000000000000000000000000000000000000000000000081526004018080602001828103825260518152602001806125516051913960600191505060405180910390fd5b600160048111156117e557fe5b8160048111156117f157fe5b14156118bb5761180d6001600554611dcf90919063ffffffff16565b61185f84600760008873ffffffffffffffffffffffffffffffffffffffff1673ffffffffffffffffffffffffffffffffffffffff1681526020019081526020016000205461150690919063ffffffff16565b11156118b6576040517f08c379a00000000000000000000000000000000000000000000000000000000081526004018080602001828103825260458152602001806126206045913960600191505060405180910390fd5b611b7f565b600260048111156118c857fe5b8160048111156118d457fe5b141561199e576118f06002600554611dcf90919063ffffffff16565b61194284600760008873ffffffffffffffffffffffffffffffffffffffff1673ffffffffffffffffffffffffffffffffffffffff1681526020019081526020016000205461150690919063ffffffff16565b1115611999576040517f08c379a00000000000000000000000000000000000000000000000000000000081526004018080602001828103825260458152602001806123956045913960600191505060405180910390fd5b611b7e565b600360048111156119ab57fe5b8160048111156119b757fe5b1415611a81576119d36004600554611dcf90919063ffffffff16565b611a2584600760008873ffffffffffffffffffffffffffffffffffffffff1673ffffffffffffffffffffffffffffffffffffffff1681526020019081526020016000205461150690919063ffffffff16565b1115611a7c576040517f08c379a00000000000000000000000000000000000000000000000000000000081526004018080602001828103825260458152602001806125a26045913960600191505060405180910390fd5b611b7d565b600480811115611a8d57fe5b816004811115611a9957fe5b1415611b7c57611ab56008600554611dcf90919063ffffffff16565b611b0784600760008873ffffffffffffffffffffffffffffffffffffffff1673ffffffffffffffffffffffffffffffffffffffff1681526020019081526020016000205461150690919063ffffffff16565b1115611b7b576040517f08c379a00000000000000000000000000000000000000000000000000000000081526004018080602001828103825260208152602001807f52656c61746976652063617020657863656564656420666f722054696572203481525060200191505060405180910390fd5b5b5b5b5b611bd183600760008773ffffffffffffffffffffffffffffffffffffffff1673ffffffffffffffffffffffffffffffffffffffff1681526020019081526020016000205461150690919063ffffffff16565b600760008673ffffffffffffffffffffffffffffffffffffffff1673ffffffffffffffffffffffffffffffffffffffff1681526020019081526020016000208190555050505050565b600160009054906101000a900473ffffffffffffffffffffffffffffffffffffffff1673ffffffffffffffffffffffffffffffffffffffff166108fc349081150290604051600060405180830381858888f19350505050158015611c82573d6000803e3d6000fd5b50565b5050565b600073ffffffffffffffffffffffffffffffffffffffff168173ffffffffffffffffffffffffffffffffffffffff161415611d0f576040517f08c379a000000000000000000000000000000000000000000000000000000000815260040180806020018281038252602681526020018061236f6026913960400191505060405180910390fd5b8073ffffffffffffffffffffffffffffffffffffffff16600460009054906101000a900473ffffffffffffffffffffffffffffffffffffffff1673ffffffffffffffffffffffffffffffffffffffff167f8be0079c531659141344cd1fd0a4f28419497f9722a3daafe3b4186f6b6457e060405160405180910390a380600460006101000a81548173ffffffffffffffffffffffffffffffffffffffff021916908373ffffffffffffffffffffffffffffffffffffffff16021790555050565b600080831415611de25760009050611e4f565b6000828402905082848281611df357fe5b0414611e4a576040517f08c379a00000000000000000000000000000000000000000000000000000000081526004018080602001828103825260218152602001806124d06021913960400191505060405180910390fd5b809150505b92915050565b6000611e9783836040518060400160405280601a81526020017f536166654d6174683a206469766973696f6e206279207a65726f000000000000815250611ef0565b905092915050565b611eec8282600060019054906101000a900473ffffffffffffffffffffffffffffffffffffffff1673ffffffffffffffffffffffffffffffffffffffff16611fb69092919063ffffffff16565b5050565b60008083118290611f9c576040517f08c379a00000000000000000000000000000000000000000000000000000000081526004018080602001828103825283818151815260200191508051906020019080838360005b83811015611f61578082015181840152602081019050611f46565b50505050905090810190601f168015611f8e5780820380516001836020036101000a031916815260200191505b509250505060405180910390fd5b506000838581611fa857fe5b049050809150509392505050565b612082838473ffffffffffffffffffffffffffffffffffffffff1663a9059cbb905060e01b8484604051602401808373ffffffffffffffffffffffffffffffffffffffff1673ffffffffffffffffffffffffffffffffffffffff16815260200182815260200192505050604051602081830303815290604052907bffffffffffffffffffffffffffffffffffffffffffffffffffffffff19166020820180517bffffffffffffffffffffffffffffffffffffffffffffffffffffffff8381831617835250505050612087565b505050565b6120a68273ffffffffffffffffffffffffffffffffffffffff166122d2565b612118576040517f08c379a000000000000000000000000000000000000000000000000000000000815260040180806020018281038252601f8152602001807f5361666545524332303a2063616c6c20746f206e6f6e2d636f6e74726163740081525060200191505060405180910390fd5b600060608373ffffffffffffffffffffffffffffffffffffffff16836040518082805190602001908083835b602083106121675780518252602082019150602081019050602083039250612144565b6001836020036101000a0380198251168184511680821785525050505050509050019150506000604051808303816000865af19150503d80600081146121c9576040519150601f19603f3d011682016040523d82523d6000602084013e6121ce565b606091505b509150915081612246576040517f08c379a00000000000000000000000000000000000000000000000000000000081526004018080602001828103825260208152602001807f5361666545524332303a206c6f772d6c6576656c2063616c6c206661696c656481525060200191505060405180910390fd5b6000815111156122cc5780806020019051602081101561226557600080fd5b81019080805190602001909291905050506122cb576040517f08c379a000000000000000000000000000000000000000000000000000000000815260040180806020018281038252602a815260200180612665602a913960400191505060405180910390fd5b5b50505050565b60008060007fc5d2460186f7233c927e7db2dcc703c0e500b653ca82273b7bfad8045d85a47060001b9050833f915080821415801561231457506000801b8214155b9250505091905056fe596f7520617265205469657220312c2062757420796f75206e65656420746f20626520546965723320696e206f7264657220746f20706172746963697061746520696e2074686520736565642073616c654f776e61626c653a206e6577206f776e657220697320746865207a65726f206164647265737352656c61746976652063617020657863656564656420666f72205469657220322c20636f6e73696465722067657474696e6720696e746f20746865206e657874207469657254686520616d6f756e742074686174206973206265696e6720626f7567687420697320746f6f20736d616c6c20746f2073706c6974206974207061727469616c6c7920666f722076657374696e6743757272656e746c7920796f75206172652062656c6f7720546965722031206c6576656c2c2062757420796f75206e65656420746f206265206174206c6561737420546965723320696e206f7264657220746f20706172746963697061746520696e2074686520736565642073616c65506f737444656c697665727943726f776473616c653a2062656e6566696369617279206973206e6f742064756520616e7920746f6b656e73536166654d6174683a206d756c7469706c69636174696f6e206f766572666c6f775265666572656e636520746f20746865205368696e6520546f6b656e20636f6e747261637420686173206e6f74206265656e2073657443726f776473616c653a2062656e656669636961727920697320746865207a65726f2061646472657373596f7520617265205469657220322c2062757420596f75206e65656420746f20626520546965723320696e206f7264657220746f20706172746963697061746520696e2074686520736565642073616c6552656c61746976652063617020657863656564656420666f72205469657220332c20636f6e73696465722067657474696e6720696e746f20746865206e657874207469657256657374696e673a207468652074696d6520726571756972656420666f722076657374696e67206973206e6f7420657870697265642079657452656c61746976652063617020657863656564656420666f72205469657220312c20636f6e73696465722067657474696e6720696e746f20746865206e65787420746965725361666545524332303a204552433230206f7065726174696f6e20646964206e6f742073756363656564a265627a7a72315820b8854981458e7d00fcecf3843d9a870be6e8ab81b03642d84cbce27eaa30edfc64736f6c634300050b0032608060405260006100146100bf60201b60201c565b9050806000806101000a81548173ffffffffffffffffffffffffffffffffffffffff021916908373ffffffffffffffffffffffffffffffffffffffff1602179055507f4101e71e974f68df5e9730cc223280b41654676bbb052cdcc735c3337e64d2d981604051808273ffffffffffffffffffffffffffffffffffffffff1673ffffffffffffffffffffffffffffffffffffffff16815260200191505060405180910390a1506100c7565b600033905090565b61054a806100d66000396000f3fe608060405234801561001057600080fd5b50600436106100415760003560e01c80632348238c14610046578063beabacc81461008a578063c6dbdf61146100f8575b600080fd5b6100886004803603602081101561005c57600080fd5b81019080803573ffffffffffffffffffffffffffffffffffffffff169060200190929190505050610142565b005b6100f6600480360360608110156100a057600080fd5b81019080803573ffffffffffffffffffffffffffffffffffffffff169060200190929190803573ffffffffffffffffffffffffffffffffffffffff1690602001909291908035906020019092919050505061031a565b005b61010061048e565b604051808273ffffffffffffffffffffffffffffffffffffffff1673ffffffffffffffffffffffffffffffffffffffff16815260200191505060405180910390f35b6000809054906101000a900473ffffffffffffffffffffffffffffffffffffffff1673ffffffffffffffffffffffffffffffffffffffff166101826104b7565b73ffffffffffffffffffffffffffffffffffffffff16146101ee576040517f08c379a000000000000000000000000000000000000000000000000000000000815260040180806020018281038252602c8152602001806104ea602c913960400191505060405180910390fd5b600073ffffffffffffffffffffffffffffffffffffffff168173ffffffffffffffffffffffffffffffffffffffff161415610274576040517f08c379a000000000000000000000000000000000000000000000000000000000815260040180806020018281038252602a8152602001806104c0602a913960400191505060405180910390fd5b806000806101000a81548173ffffffffffffffffffffffffffffffffffffffff021916908373ffffffffffffffffffffffffffffffffffffffff1602179055507f4101e71e974f68df5e9730cc223280b41654676bbb052cdcc735c3337e64d2d981604051808273ffffffffffffffffffffffffffffffffffffffff1673ffffffffffffffffffffffffffffffffffffffff16815260200191505060405180910390a150565b6000809054906101000a900473ffffffffffffffffffffffffffffffffffffffff1673ffffffffffffffffffffffffffffffffffffffff1661035a6104b7565b73ffffffffffffffffffffffffffffffffffffffff16146103c6576040517f08c379a000000000000000000000000000000000000000000000000000000000815260040180806020018281038252602c8152602001806104ea602c913960400191505060405180910390fd5b8273ffffffffffffffffffffffffffffffffffffffff1663a9059cbb83836040518363ffffffff1660e01b8152600401808373ffffffffffffffffffffffffffffffffffffffff1673ffffffffffffffffffffffffffffffffffffffff16815260200182815260200192505050602060405180830381600087803b15801561044d57600080fd5b505af1158015610461573d6000803e3d6000fd5b505050506040513d602081101561047757600080fd5b810190808051906020019092919050505050505050565b60008060009054906101000a900473ffffffffffffffffffffffffffffffffffffffff16905090565b60003390509056fe5365636f6e646172793a206e6577207072696d61727920697320746865207a65726f20616464726573735365636f6e646172793a2063616c6c6572206973206e6f7420746865207072696d617279206163636f756e74a265627a7a7231582064df3a40deb4367cbc67b7d8347a9196fc5757bf11a86df4467aacea0ed0d04b64736f6c634300050b003243726f776473616c653a20746f6b656e20697320746865207a65726f206164647265737343726f776473616c653a2077616c6c657420697320746865207a65726f2061646472657373",
  "source": "pragma solidity ^0.5.11;\n\nimport \"@openzeppelin/contracts/crowdsale/Crowdsale.sol\";\nimport \"@openzeppelin/contracts/token/ERC20/IERC20.sol\";\nimport \"@openzeppelin/contracts/ownership/Secondary.sol\";\nimport \"@openzeppelin/contracts/ownership/Ownable.sol\";\nimport \".././Kassandra/KSAT.sol\";\n\ncontract KassandraSeed is Crowdsale, Ownable{\n    using SafeMath for uint256;\n    enum Tiers {NoTier, Tier1, Tier2, Tier3, Tier4 }\n    uint256 public relativeCap = 217390000000000000000;\n    bool public isSaleOpenForAll = true;\n    mapping(address => uint256) public contributions;\n    mapping(address => uint256) public vestedBalances;\n    mapping(address => uint256) public vestingPeriod;\n    KSAT public shineToken; \n    __unstable__TokenVault public vault;\n\n    constructor(\n        uint256 rate,\n        address payable wallet,\n        IERC20 token\n    ) public Crowdsale(rate, wallet, token) {\n        vault = new __unstable__TokenVault();\n    }\n    \n    function setRelativeCap(uint256 _relativeCap) public onlyOwner {\n        relativeCap = _relativeCap;\n    }\n    function setShineTokenAddress(address tokenAddress) public onlyOwner {\n        shineToken = KSAT(tokenAddress);\n    }\n\n    function allowAllTierAccess(bool _isSaleOpenForAll) public onlyOwner {\n        isSaleOpenForAll = _isSaleOpenForAll;\n    }\n\n\n    function getShineTokenBalance(address beneficiary) public view returns (uint256) {\n        require(address(shineToken) != address(0), \"Reference to the Shine Token contract has not been set\");\n        return shineToken.balanceOf(beneficiary);\n    }\n\n    function getTier(uint256 shineBalance) public pure returns (Tiers){\n        if (shineBalance < 15000000000000000000000){\n            return Tiers.NoTier;\n        }else if(shineBalance >= 15000000000000000000000 && shineBalance < 50000000000000000000000){\n            return Tiers.Tier1;\n        }else if(shineBalance >= 50000000000000000000000 && shineBalance < 200000000000000000000000){\n            return Tiers.Tier2;\n        }else if(shineBalance >= 200000000000000000000000 && shineBalance < 400000000000000000000000){\n            return Tiers.Tier3;\n        }else if (shineBalance >= 400000000000000000000000){\n            return Tiers.Tier4;\n        }\n    }\n\n    function getContribution(address beneficiary) public view returns (uint256) {\n        return contributions[beneficiary];\n    }\n\n    function _updatePurchasingState(address beneficiary, uint256 weiAmount) internal {\n        uint256 shineBalance = getShineTokenBalance(beneficiary);\n        \n        Tiers tier = getTier(shineBalance);\n        require(tier != Tiers.NoTier, \"Currently you are below Tier 1 level, but you need to be at least Tier3 in order to participate in the seed sale\");\n        require(tier != Tiers.Tier1 || isSaleOpenForAll, \"You are Tier 1, but you need to be Tier3 in order to participate in the seed sale\");\n        require(tier != Tiers.Tier2 || isSaleOpenForAll, \"You are Tier 2, but You need to be Tier3 in order to participate in the seed sale\");\n        \n        if(tier == Tiers.Tier1){ // do we need isSaleOpenForAll again to check?\n            require(contributions[beneficiary].add(weiAmount) <= relativeCap.mul(1), \"Relative cap exceeded for Tier 1, consider getting into the next tier\");\n        }else if(tier == Tiers.Tier2){ \n            require(contributions[beneficiary].add(weiAmount) <= relativeCap.mul(2), \"Relative cap exceeded for Tier 2, consider getting into the next tier\");\n        }else if(tier == Tiers.Tier3){\n            require(contributions[beneficiary].add(weiAmount) <= relativeCap.mul(4), \"Relative cap exceeded for Tier 3, consider getting into the next tier\");\n        }else if(tier == Tiers.Tier4){\n            require(contributions[beneficiary].add(weiAmount) <= relativeCap.mul(8), \"Relative cap exceeded for Tier 4\");\n        }\n\n        contributions[beneficiary] = contributions[beneficiary].add(weiAmount);\n    }\n\n    function _processPurchase(address beneficiary, uint256 tokenAmount) internal {\n        require((tokenAmount.div(100)).mul(100) == tokenAmount, 'The amount that is being bought is too small to split it partially for vesting');\n        //vestedBalances[beneficiary] = vestedBalances[beneficiary].add(tokenAmount.mul(75).div(100));\n\n        //vestingPeriod[beneficiary] = block.timestamp + 100 days;\n\n        // deliver 100% of the tokens\n        _deliverTokens(beneficiary, tokenAmount.mul(100).div(100));\n     \n    \n    }\n\n    function withdrawTokens(address beneficiary) public {\n        uint256 amount = vestedBalances[beneficiary];\n        require(amount > 0, \"PostDeliveryCrowdsale: beneficiary is not due any tokens\");\n        require(block.timestamp >= vestingPeriod[beneficiary], \"Vesting: the time required for vesting is not expired yet\");\n\n        vestedBalances[beneficiary] = 0;\n        vault.transfer(token(), beneficiary, amount);\n    }\n\n}\n\ncontract __unstable__TokenVault is Secondary {\n    function transfer(IERC20 token, address to, uint256 amount) public onlyPrimary {\n        token.transfer(to, amount);\n    }\n}\n\n",
  "sourcePath": "/Users/jdoe/Documents/Projects/ERC20/contracts/Projects/Kassandra/KassandraSeed.sol",
  "compiler": {
    "name": "solc",
    "version": "0.5.11+commit.c082d0b4.Emscripten.clang"
  },
  "schemaVersion": "3.4.4",
  "updatedAt": "2022-01-12T11:56:25.734Z",
  "networkType": "ethereum",
  "devdoc": {
    "methods": {
      "buyTokens(address)": {
        "details": "low level token purchase ***DO NOT OVERRIDE*** This function has a non-reentrancy guard, so it shouldn't be called by another `nonReentrant` function.",
        "params": {
          "beneficiary": "Recipient of the token purchase"
        }
      },
      "isOwner()": {
        "details": "Returns true if the caller is the current owner."
      },
      "owner()": {
        "details": "Returns the address of the current owner."
      },
      "rate()": {
        "return": "the number of token units a buyer gets per wei."
      },
      "renounceOwnership()": {
        "details": "Leaves the contract without owner. It will not be possible to call `onlyOwner` functions anymore. Can only be called by the current owner.     * NOTE: Renouncing ownership will leave the contract without an owner, thereby removing any functionality that is only available to the owner."
      },
      "token()": {
        "return": "the token being sold."
      },
      "transferOwnership(address)": {
        "details": "Transfers ownership of the contract to a new account (`newOwner`). Can only be called by the current owner."
      },
      "wallet()": {
        "return": "the address where funds are collected."
      },
      "weiRaised()": {
        "return": "the amount of wei raised."
      }
    }
  },
  "userdoc": {
    "methods": {}
  }
}